{
  "contractName": "Database",
  "abi": [
    {
      "constant": true,
      "inputs": [],
      "name": "name",
      "outputs": [
        {
          "name": "",
          "type": "string"
        }
      ],
      "payable": false,
      "stateMutability": "view",
      "type": "function"
    },
    {
      "constant": true,
      "inputs": [],
      "name": "totalSupply",
      "outputs": [
        {
          "name": "",
          "type": "uint256"
        }
      ],
      "payable": false,
      "stateMutability": "view",
      "type": "function"
    },
    {
      "constant": true,
      "inputs": [],
      "name": "decimals",
      "outputs": [
        {
          "name": "",
          "type": "uint256"
        }
      ],
      "payable": false,
      "stateMutability": "view",
      "type": "function"
    },
    {
      "constant": true,
      "inputs": [
        {
          "name": "_owner",
          "type": "address"
        }
      ],
      "name": "stakeOf",
      "outputs": [
        {
          "name": "",
          "type": "uint256"
        }
      ],
      "payable": false,
      "stateMutability": "view",
      "type": "function"
    },
    {
      "constant": true,
      "inputs": [
        {
          "name": "_owner",
          "type": "address"
        },
        {
          "name": "_blockNumber",
          "type": "uint256"
        }
      ],
      "name": "stakeOfAt",
      "outputs": [
        {
          "name": "",
          "type": "uint256"
        }
      ],
      "payable": false,
      "stateMutability": "view",
      "type": "function"
    },
    {
      "constant": true,
      "inputs": [],
      "name": "symbol",
      "outputs": [
        {
          "name": "",
          "type": "string"
        }
      ],
      "payable": false,
      "stateMutability": "view",
      "type": "function"
    },
    {
      "constant": true,
      "inputs": [
        {
          "name": "_blockNumber",
          "type": "uint256"
        }
      ],
      "name": "totalSupplyAt",
      "outputs": [
        {
          "name": "",
          "type": "uint256"
        }
      ],
      "payable": false,
      "stateMutability": "view",
      "type": "function"
    },
    {
      "inputs": [
        {
          "name": "_boostrapNode",
          "type": "address"
        },
        {
          "name": "_boostrapValue",
          "type": "uint256"
        }
      ],
      "payable": false,
      "stateMutability": "nonpayable",
      "type": "constructor"
    },
    {
      "anonymous": false,
      "inputs": [
        {
          "indexed": true,
          "name": "reporter",
          "type": "address"
        },
        {
          "indexed": false,
          "name": "index",
          "type": "uint256"
        },
        {
          "indexed": false,
          "name": "hashRoot",
          "type": "bytes32"
        }
      ],
      "name": "SubmitReport",
      "type": "event"
    },
    {
      "anonymous": false,
      "inputs": [
        {
          "indexed": true,
          "name": "reviewer",
          "type": "address"
        },
        {
          "indexed": false,
          "name": "reporter",
          "type": "address"
        },
        {
          "indexed": false,
          "name": "index",
          "type": "uint256"
        },
        {
          "indexed": false,
          "name": "completeness",
          "type": "uint256"
        },
        {
          "indexed": false,
          "name": "importance",
          "type": "uint256"
        }
      ],
      "name": "ScoreReport",
      "type": "event"
    },
    {
      "anonymous": false,
      "inputs": [
        {
          "indexed": true,
          "name": "reporter",
          "type": "address"
        },
        {
          "indexed": false,
          "name": "index",
          "type": "uint256"
        },
        {
          "indexed": false,
          "name": "reward",
          "type": "uint256"
        }
      ],
      "name": "CloseReport",
      "type": "event"
    },
    {
      "constant": false,
      "inputs": [
        {
          "name": "_hashRoot",
          "type": "bytes32"
        },
        {
          "name": "_reviewers",
          "type": "address[]"
        },
        {
          "name": "_references",
          "type": "bytes32[]"
        }
      ],
      "name": "submitReport",
      "outputs": [],
      "payable": false,
      "stateMutability": "nonpayable",
      "type": "function"
    },
    {
      "constant": false,
      "inputs": [
        {
          "name": "_reporter",
          "type": "address"
        },
        {
          "name": "_index",
          "type": "uint256"
        },
        {
          "name": "_completeness",
          "type": "uint256"
        },
        {
          "name": "_importance",
          "type": "uint256"
        }
      ],
      "name": "scoreReport",
      "outputs": [],
      "payable": false,
      "stateMutability": "nonpayable",
      "type": "function"
    },
    {
      "constant": false,
      "inputs": [
        {
          "name": "_index",
          "type": "uint256"
        }
      ],
      "name": "closeReport",
      "outputs": [],
      "payable": false,
      "stateMutability": "nonpayable",
      "type": "function"
    },
    {
      "constant": true,
      "inputs": [
        {
          "name": "_reporter",
          "type": "address"
        },
        {
          "name": "_index",
          "type": "uint256"
        }
      ],
      "name": "getBasicReportInfo",
      "outputs": [
        {
          "name": "",
          "type": "bytes32"
        },
        {
          "name": "",
          "type": "uint256"
        },
        {
          "name": "",
          "type": "uint256"
        },
        {
          "name": "",
          "type": "address"
        },
        {
          "name": "",
          "type": "bool"
        }
      ],
      "payable": false,
      "stateMutability": "view",
      "type": "function"
    },
    {
      "constant": true,
      "inputs": [
        {
          "name": "_reporter",
          "type": "address"
        },
        {
          "name": "_index",
          "type": "uint256"
        },
        {
          "name": "_order",
          "type": "uint256"
        }
      ],
      "name": "getReportReviewer",
      "outputs": [
        {
          "name": "",
          "type": "address"
        },
        {
          "name": "",
          "type": "bool"
        }
      ],
      "payable": false,
      "stateMutability": "view",
      "type": "function"
    },
    {
      "constant": true,
      "inputs": [
        {
          "name": "_reporter",
          "type": "address"
        },
        {
          "name": "_index",
          "type": "uint256"
        },
        {
          "name": "_order",
          "type": "uint256"
        }
      ],
      "name": "getReportRefer",
      "outputs": [
        {
          "name": "",
          "type": "bytes32"
        }
      ],
      "payable": false,
      "stateMutability": "view",
      "type": "function"
    }
  ],
  "bytecode": "0x60806040523480156200001157600080fd5b50604051604080620039d783398101806040528101908080519060200190929190805190602001909291905050506040805190810160405280600581526020017f5354414b45000000000000000000000000000000000000000000000000000000815250600290805190602001906200008c92919062000750565b506040805190810160405280600581526020017f5354414b4500000000000000000000000000000000000000000000000000000081525060039080519060200190620000da92919062000750565b506012600481905550620000fe828262000107640100000000026401000000009004565b50505062000819565b60008062000114620007d7565b600062000120620007d7565b600080805490501115620001a2576200019a8660006200015e6001600080549050620007196401000000000262002931179091906401000000009004565b8154811015156200016b57fe5b9060005260206000209060020201600101546200073364010000000002620028c7179091906401000000009004565b935062000201565b600060408051908101604052806000815260200160008152509080600181540180825580915050906001820390600052602060002090600202016000909192909190915060008201518160000155602082015181600101555050508593505b4360006200022d6001600080549050620007196401000000000262002931179091906401000000009004565b8154811015156200023a57fe5b9060005260206000209060020201600001541415620002a7578360006200027f6001600080549050620007196401000000000262002931179091906401000000009004565b8154811015156200028c57fe5b90600052602060002090600202016001018190555062000304565b60408051908101604052804381526020018581525092506000839080600181540180825580915050906001820390600052602060002090600202016000909192909190915060008201518160000155602082015181600101555050505b6000600160008973ffffffffffffffffffffffffffffffffffffffff1673ffffffffffffffffffffffffffffffffffffffff1681526020019081526020016000208054905011156200043d576200043586600160008a73ffffffffffffffffffffffffffffffffffffffff1673ffffffffffffffffffffffffffffffffffffffff168152602001908152602001600020620003f960018060008d73ffffffffffffffffffffffffffffffffffffffff1673ffffffffffffffffffffffffffffffffffffffff16815260200190815260200160002080549050620007196401000000000262002931179091906401000000009004565b8154811015156200040657fe5b9060005260206000209060020201600101546200073364010000000002620028c7179091906401000000009004565b9150620004d9565b600160008873ffffffffffffffffffffffffffffffffffffffff1673ffffffffffffffffffffffffffffffffffffffff16815260200190815260200160002060408051908101604052806000815260200160008152509080600181540180825580915050906001820390600052602060002090600202016000909192909190915060008201518160000155602082015181600101555050508591505b43600160008973ffffffffffffffffffffffffffffffffffffffff1673ffffffffffffffffffffffffffffffffffffffff1681526020019081526020016000206200057e60018060008c73ffffffffffffffffffffffffffffffffffffffff1673ffffffffffffffffffffffffffffffffffffffff16815260200190815260200160002080549050620007196401000000000262002931179091906401000000009004565b8154811015156200058b57fe5b9060005260206000209060020201600001541415620006715781600160008973ffffffffffffffffffffffffffffffffffffffff1673ffffffffffffffffffffffffffffffffffffffff1681526020019081526020016000206200064960018060008c73ffffffffffffffffffffffffffffffffffffffff1673ffffffffffffffffffffffffffffffffffffffff16815260200190815260200160002080549050620007196401000000000262002931179091906401000000009004565b8154811015156200065657fe5b9060005260206000209060020201600101819055506200070b565b6040805190810160405280438152602001838152509050600160008873ffffffffffffffffffffffffffffffffffffffff1673ffffffffffffffffffffffffffffffffffffffff168152602001908152602001600020819080600181540180825580915050906001820390600052602060002090600202016000909192909190915060008201518160000155602082015181600101555050505b600194505050505092915050565b60008282111515156200072857fe5b818303905092915050565b600081830190508281101515156200074757fe5b80905092915050565b828054600181600116156101000203166002900490600052602060002090601f016020900481019282601f106200079357805160ff1916838001178555620007c4565b82800160010185558215620007c4579182015b82811115620007c3578251825591602001919060010190620007a6565b5b509050620007d39190620007f1565b5090565b604080519081016040528060008152602001600081525090565b6200081691905b8082111562000812576000816000905550600101620007f8565b5090565b90565b6131ae80620008296000396000f3006080604052600436106100c5576000357c0100000000000000000000000000000000000000000000000000000000900463ffffffff16806301c6b94a146100ca57806306fdde031461017f5780630fa7658c1461020f57806318160ddd14610270578063313ce5671461029b57806339b1aa13146102c657806342623360146103685780634c75ab9c146103bf5780636530db981461042057806395d89b411461044d578063981b24d0146104dd578063eb2327301461051e578063f939c66614610591575b600080fd5b3480156100d657600080fd5b50610115600480360381019080803573ffffffffffffffffffffffffffffffffffffffff16906020019092919080359060200190929190505050610648565b6040518086600019166000191681526020018581526020018481526020018373ffffffffffffffffffffffffffffffffffffffff1673ffffffffffffffffffffffffffffffffffffffff168152602001821515151581526020019550505050505060405180910390f35b34801561018b57600080fd5b506101946108fe565b6040518080602001828103825283818151815260200191508051906020019080838360005b838110156101d45780820151818401526020810190506101b9565b50505050905090810190601f1680156102015780820380516001836020036101000a031916815260200191505b509250505060405180910390f35b34801561021b57600080fd5b5061026e600480360381019080803573ffffffffffffffffffffffffffffffffffffffff1690602001909291908035906020019092919080359060200190929190803590602001909291905050506109a0565b005b34801561027c57600080fd5b50610285611457565b6040518082815260200191505060405180910390f35b3480156102a757600080fd5b506102b06114d3565b6040518082815260200191505060405180910390f35b3480156102d257600080fd5b5061031b600480360381019080803573ffffffffffffffffffffffffffffffffffffffff16906020019092919080359060200190929190803590602001909291905050506114dd565b604051808373ffffffffffffffffffffffffffffffffffffffff1673ffffffffffffffffffffffffffffffffffffffff168152602001821515151581526020019250505060405180910390f35b34801561037457600080fd5b506103a9600480360381019080803573ffffffffffffffffffffffffffffffffffffffff1690602001909291905050506117c0565b6040518082815260200191505060405180910390f35b3480156103cb57600080fd5b5061040a600480360381019080803573ffffffffffffffffffffffffffffffffffffffff1690602001909291908035906020019092919050505061187b565b6040518082815260200191505060405180910390f35b34801561042c57600080fd5b5061044b60048036038101908080359060200190929190505050611937565b005b34801561045957600080fd5b506104626121e6565b6040518080602001828103825283818151815260200191508051906020019080838360005b838110156104a2578082015181840152602081019050610487565b50505050905090810190601f1680156104cf5780820380516001836020036101000a031916815260200191505b509250505060405180910390f35b3480156104e957600080fd5b5061050860048036038101908080359060200190929190505050612288565b6040518082815260200191505060405180910390f35b34801561052a57600080fd5b50610573600480360381019080803573ffffffffffffffffffffffffffffffffffffffff1690602001909291908035906020019092919080359060200190929190505050612306565b60405180826000191660001916815260200191505060405180910390f35b34801561059d57600080fd5b50610646600480360381019080803560001916906020019092919080359060200190820180359060200190808060200260200160405190810160405280939291908181526020018383602002808284378201915050505050509192919290803590602001908201803590602001908080602002602001604051908101604052809392919081815260200183836020028082843782019150505050505091929192905050506125ae565b005b6000806000806000610658612fc2565b600560008973ffffffffffffffffffffffffffffffffffffffff1673ffffffffffffffffffffffffffffffffffffffff168152602001908152602001600020878154811015156106a457fe5b9060005260206000209060080201610100604051908101604052908160008201546000191660001916815260200160018201548152602001600282015481526020016003820160009054906101000a900473ffffffffffffffffffffffffffffffffffffffff1673ffffffffffffffffffffffffffffffffffffffff1673ffffffffffffffffffffffffffffffffffffffff168152602001600482018054806020026020016040519081016040528092919081815260200182805480156107c057602002820191906000526020600020905b8160009054906101000a900473ffffffffffffffffffffffffffffffffffffffff1673ffffffffffffffffffffffffffffffffffffffff1681526020019060010190808311610776575b505050505081526020016005820180548060200260200160405190810160405280929190818152602001828054801561084e57602002820191906000526020600020905b8160009054906101000a900473ffffffffffffffffffffffffffffffffffffffff1673ffffffffffffffffffffffffffffffffffffffff1681526020019060010190808311610804575b50505050508152602001600682018054806020026020016040519081016040528092919081815260200182805480156108aa57602002820191906000526020600020905b81546000191681526020019060010190808311610892575b505050505081526020016007820160009054906101000a900460ff161515151581525050905080600001518160200151826040015183606001518460e0015195509550955095509550509295509295909350565b606060028054600181600116156101000203166002900480601f0160208091040260200160405190810160405280929190818152602001828054600181600116156101000203166002900480156109965780601f1061096b57610100808354040283529160200191610996565b820191906000526020600020905b81548152906001019060200180831161097957829003601f168201915b5050505050905090565b600080600084600081101580156109b85750603c8111155b1515610a2c576040517f08c379a000000000000000000000000000000000000000000000000000000000815260040180806020018281038252601a8152602001807f496e76616c696420636f6d706c6574656e6573732073636f726500000000000081525060200191505060405180910390fd5b84600a811480610a3c5750601481145b80610a475750601e81145b80610a525750602881145b1515610ac6576040517f08c379a00000000000000000000000000000000000000000000000000000000081526004018080602001828103825260188152602001807f496e76616c696420696d706f7274616e63652073636f7265000000000000000081525060200191505060405180910390fd5b600560008a73ffffffffffffffffffffffffffffffffffffffff1673ffffffffffffffffffffffffffffffffffffffff16815260200190815260200160002088815481101515610b1257fe5b9060005260206000209060080201610100604051908101604052908160008201546000191660001916815260200160018201548152602001600282015481526020016003820160009054906101000a900473ffffffffffffffffffffffffffffffffffffffff1673ffffffffffffffffffffffffffffffffffffffff1673ffffffffffffffffffffffffffffffffffffffff16815260200160048201805480602002602001604051908101604052809291908181526020018280548015610c2e57602002820191906000526020600020905b8160009054906101000a900473ffffffffffffffffffffffffffffffffffffffff1673ffffffffffffffffffffffffffffffffffffffff1681526020019060010190808311610be4575b5050505050815260200160058201805480602002602001604051908101604052809291908181526020018280548015610cbc57602002820191906000526020600020905b8160009054906101000a900473ffffffffffffffffffffffffffffffffffffffff1673ffffffffffffffffffffffffffffffffffffffff1681526020019060010190808311610c72575b5050505050815260200160068201805480602002602001604051908101604052809291908181526020018280548015610d1857602002820191906000526020600020905b81546000191681526020019060010190808311610d00575b505050505081526020016007820160009054906101000a900460ff161515151581525050806080015151610d5033836080015161284a565b14151515610dc6576040517f08c379a00000000000000000000000000000000000000000000000000000000081526004018080602001828103825260168152602001807f496e76616c69642061757468656e7469636174696f6e0000000000000000000081525060200191505060405180910390fd5b8060a0015151610dda338360a0015161284a565b141515610e4f576040517f08c379a00000000000000000000000000000000000000000000000000000000081526004018080602001828103825260168152602001807f496e76616c69642061757468656e7469636174696f6e0000000000000000000081525060200191505060405180910390fd5b600560008b73ffffffffffffffffffffffffffffffffffffffff1673ffffffffffffffffffffffffffffffffffffffff16815260200190815260200160002089815481101515610e9b57fe5b9060005260206000209060080201610100604051908101604052908160008201546000191660001916815260200160018201548152602001600282015481526020016003820160009054906101000a900473ffffffffffffffffffffffffffffffffffffffff1673ffffffffffffffffffffffffffffffffffffffff1673ffffffffffffffffffffffffffffffffffffffff16815260200160048201805480602002602001604051908101604052809291908181526020018280548015610fb757602002820191906000526020600020905b8160009054906101000a900473ffffffffffffffffffffffffffffffffffffffff1673ffffffffffffffffffffffffffffffffffffffff1681526020019060010190808311610f6d575b505050505081526020016005820180548060200260200160405190810160405280929190818152602001828054801561104557602002820191906000526020600020905b8160009054906101000a900473ffffffffffffffffffffffffffffffffffffffff1673ffffffffffffffffffffffffffffffffffffffff1681526020019060010190808311610ffb575b50505050508152602001600682018054806020026020016040519081016040528092919081815260200182805480156110a157602002820191906000526020600020905b81546000191681526020019060010190808311611089575b505050505081526020016007820160009054906101000a900460ff1615151515815250508060e001511515156110d657600080fd5b600560008c73ffffffffffffffffffffffffffffffffffffffff1673ffffffffffffffffffffffffffffffffffffffff1681526020019081526020016000208a81548110151561112257fe5b90600052602060002090600802016005013390806001815401808255809150509060018203906000526020600020016000909192909190916101000a81548173ffffffffffffffffffffffffffffffffffffffff021916908373ffffffffffffffffffffffffffffffffffffffff16021790555050600560008c73ffffffffffffffffffffffffffffffffffffffff1673ffffffffffffffffffffffffffffffffffffffff1681526020019081526020016000208a8154811015156111e357fe5b9060005260206000209060080201600201549650600560008c73ffffffffffffffffffffffffffffffffffffffff1673ffffffffffffffffffffffffffffffffffffffff1681526020019081526020016000208a81548110151561124357fe5b906000526020600020906008020160050180549050955061129a606461128c6112758b8d6128c790919063ffffffff16565b61127e336117c0565b6128e390919063ffffffff16565b61291b90919063ffffffff16565b94506001861115611355576112ef856112e1886112d36112c460018c61293190919063ffffffff16565b8c6128e390919063ffffffff16565b61291b90919063ffffffff16565b6128e390919063ffffffff16565b600560008d73ffffffffffffffffffffffffffffffffffffffff1673ffffffffffffffffffffffffffffffffffffffff1681526020019081526020016000208b81548110151561133b57fe5b9060005260206000209060080201600201819055506113b8565b84600560008d73ffffffffffffffffffffffffffffffffffffffff1673ffffffffffffffffffffffffffffffffffffffff1681526020019081526020016000208b8154811015156113a257fe5b9060005260206000209060080201600201819055505b3373ffffffffffffffffffffffffffffffffffffffff167f3f76fad65599911fed68d4b0009ab91622f0f882f7ae9730f59b1d2818f0f4198c8c8c8c604051808573ffffffffffffffffffffffffffffffffffffffff1673ffffffffffffffffffffffffffffffffffffffff16815260200184815260200183815260200182815260200194505050505060405180910390a25050505050505050505050565b60006114ce6000805480602002602001604051908101604052809291908181526020016000905b828210156114c45783829060005260206000209060020201604080519081016040529081600082015481526020016001820154815250508152602001906001019061147e565b505050504361294a565b905090565b6000600454905090565b6000806114e8612fc2565b6000600560008873ffffffffffffffffffffffffffffffffffffffff1673ffffffffffffffffffffffffffffffffffffffff1681526020019081526020016000208681548110151561153657fe5b9060005260206000209060080201610100604051908101604052908160008201546000191660001916815260200160018201548152602001600282015481526020016003820160009054906101000a900473ffffffffffffffffffffffffffffffffffffffff1673ffffffffffffffffffffffffffffffffffffffff1673ffffffffffffffffffffffffffffffffffffffff1681526020016004820180548060200260200160405190810160405280929190818152602001828054801561165257602002820191906000526020600020905b8160009054906101000a900473ffffffffffffffffffffffffffffffffffffffff1673ffffffffffffffffffffffffffffffffffffffff1681526020019060010190808311611608575b50505050508152602001600582018054806020026020016040519081016040528092919081815260200182805480156116e057602002820191906000526020600020905b8160009054906101000a900473ffffffffffffffffffffffffffffffffffffffff1673ffffffffffffffffffffffffffffffffffffffff1681526020019060010190808311611696575b505050505081526020016006820180548060200260200160405190810160405280929190818152602001828054801561173c57602002820191906000526020600020905b81546000191681526020019060010190808311611724575b505050505081526020016007820160009054906101000a900460ff16151515158152505091508160a001515161179183608001518781518110151561177d57fe5b906020019060200201518460a0015161284a565b141590508160800151858151811015156117a757fe5b9060200190602002015181935093505050935093915050565b6000611874600160008473ffffffffffffffffffffffffffffffffffffffff1673ffffffffffffffffffffffffffffffffffffffff168152602001908152602001600020805480602002602001604051908101604052809291908181526020016000905b8282101561186a57838290600052602060002090600202016040805190810160405290816000820154815260200160018201548152505081526020019060010190611824565b505050504361294a565b9050919050565b600061192f600160008573ffffffffffffffffffffffffffffffffffffffff1673ffffffffffffffffffffffffffffffffffffffff168152602001908152602001600020805480602002602001604051908101604052809291908181526020016000905b82821015611925578382906000526020600020906002020160408051908101604052908160008201548152602001600182015481525050815260200190600101906118df565b505050508361294a565b905092915050565b6000806000600560003373ffffffffffffffffffffffffffffffffffffffff1673ffffffffffffffffffffffffffffffffffffffff1681526020019081526020016000208481548110151561198857fe5b9060005260206000209060080201610100604051908101604052908160008201546000191660001916815260200160018201548152602001600282015481526020016003820160009054906101000a900473ffffffffffffffffffffffffffffffffffffffff1673ffffffffffffffffffffffffffffffffffffffff1673ffffffffffffffffffffffffffffffffffffffff16815260200160048201805480602002602001604051908101604052809291908181526020018280548015611aa457602002820191906000526020600020905b8160009054906101000a900473ffffffffffffffffffffffffffffffffffffffff1673ffffffffffffffffffffffffffffffffffffffff1681526020019060010190808311611a5a575b5050505050815260200160058201805480602002602001604051908101604052809291908181526020018280548015611b3257602002820191906000526020600020905b8160009054906101000a900473ffffffffffffffffffffffffffffffffffffffff1673ffffffffffffffffffffffffffffffffffffffff1681526020019060010190808311611ae8575b5050505050815260200160068201805480602002602001604051908101604052809291908181526020018280548015611b8e57602002820191906000526020600020905b81546000191681526020019060010190808311611b76575b505050505081526020016007820160009054906101000a900460ff1615151515815250503373ffffffffffffffffffffffffffffffffffffffff16816060015173ffffffffffffffffffffffffffffffffffffffff16141515611c59576040517f08c379a00000000000000000000000000000000000000000000000000000000081526004018080602001828103825260168152602001807f496e76616c69642061757468656e7469636174696f6e0000000000000000000081525060200191505060405180910390fd5b600560003373ffffffffffffffffffffffffffffffffffffffff1673ffffffffffffffffffffffffffffffffffffffff16815260200190815260200160002085815481101515611ca557fe5b9060005260206000209060080201610100604051908101604052908160008201546000191660001916815260200160018201548152602001600282015481526020016003820160009054906101000a900473ffffffffffffffffffffffffffffffffffffffff1673ffffffffffffffffffffffffffffffffffffffff1673ffffffffffffffffffffffffffffffffffffffff16815260200160048201805480602002602001604051908101604052809291908181526020018280548015611dc157602002820191906000526020600020905b8160009054906101000a900473ffffffffffffffffffffffffffffffffffffffff1673ffffffffffffffffffffffffffffffffffffffff1681526020019060010190808311611d77575b5050505050815260200160058201805480602002602001604051908101604052809291908181526020018280548015611e4f57602002820191906000526020600020905b8160009054906101000a900473ffffffffffffffffffffffffffffffffffffffff1673ffffffffffffffffffffffffffffffffffffffff1681526020019060010190808311611e05575b5050505050815260200160068201805480602002602001604051908101604052809291908181526020018280548015611eab57602002820191906000526020600020905b81546000191681526020019060010190808311611e93575b505050505081526020016007820160009054906101000a900460ff1615151515815250508060e00151151515611ee057600080fd5b6001600560003373ffffffffffffffffffffffffffffffffffffffff1673ffffffffffffffffffffffffffffffffffffffff16815260200190815260200160002087815481101515611f2e57fe5b906000526020600020906008020160070160006101000a81548160ff021916908315150217905550611fda6064611fcc600a600560003373ffffffffffffffffffffffffffffffffffffffff1673ffffffffffffffffffffffffffffffffffffffff1681526020019081526020016000208a815481101515611fac57fe5b9060005260206000209060080201600201546128e390919063ffffffff16565b61291b90919063ffffffff16565b9450612062600560003373ffffffffffffffffffffffffffffffffffffffff1673ffffffffffffffffffffffffffffffffffffffff1681526020019081526020016000208781548110151561202b57fe5b90600052602060002090600802016005018054905061205460048861291b90919063ffffffff16565b61291b90919063ffffffff16565b935061206e3386612a42565b50600092505b600560003373ffffffffffffffffffffffffffffffffffffffff1673ffffffffffffffffffffffffffffffffffffffff168152602001908152602001600020868154811015156120c057fe5b9060005260206000209060080201600501805490508310156121885761217a600560003373ffffffffffffffffffffffffffffffffffffffff1673ffffffffffffffffffffffffffffffffffffffff1681526020019081526020016000208781548110151561212b57fe5b90600052602060002090600802016005018481548110151561214957fe5b9060005260206000200160009054906101000a900473ffffffffffffffffffffffffffffffffffffffff1685612a42565b508280600101935050612074565b3373ffffffffffffffffffffffffffffffffffffffff167fb1a25f7828335dcdf9ea194f4d5acdd03d3beb53d8bf4f3cce2cf68bd9f6a0ab8787604051808381526020018281526020019250505060405180910390a2505050505050565b606060038054600181600116156101000203166002900480601f01602080910402602001604051908101604052809291908181526020018280546001816001161561010002031660029004801561227e5780601f106122535761010080835404028352916020019161227e565b820191906000526020600020905b81548152906001019060200180831161226157829003601f168201915b5050505050905090565b60006122ff6000805480602002602001604051908101604052809291908181526020016000905b828210156122f5578382906000526020600020906002020160408051908101604052908160008201548152602001600182015481525050815260200190600101906122af565b505050508361294a565b9050919050565b6000612310612fc2565b600560008673ffffffffffffffffffffffffffffffffffffffff1673ffffffffffffffffffffffffffffffffffffffff1681526020019081526020016000208481548110151561235c57fe5b9060005260206000209060080201610100604051908101604052908160008201546000191660001916815260200160018201548152602001600282015481526020016003820160009054906101000a900473ffffffffffffffffffffffffffffffffffffffff1673ffffffffffffffffffffffffffffffffffffffff1673ffffffffffffffffffffffffffffffffffffffff1681526020016004820180548060200260200160405190810160405280929190818152602001828054801561247857602002820191906000526020600020905b8160009054906101000a900473ffffffffffffffffffffffffffffffffffffffff1673ffffffffffffffffffffffffffffffffffffffff168152602001906001019080831161242e575b505050505081526020016005820180548060200260200160405190810160405280929190818152602001828054801561250657602002820191906000526020600020905b8160009054906101000a900473ffffffffffffffffffffffffffffffffffffffff1673ffffffffffffffffffffffffffffffffffffffff16815260200190600101908083116124bc575b505050505081526020016006820180548060200260200160405190810160405280929190818152602001828054801561256257602002820191906000526020600020905b8154600019168152602001906001019080831161254a575b505050505081526020016007820160009054906101000a900460ff16151515158152505090508060c001518381518110151561259a57fe5b906020019060200201519150509392505050565b6125b6612fc2565b6101006040519081016040528085600019168152602001428152602001600081526020013373ffffffffffffffffffffffffffffffffffffffff168152602001848152602001600060405190808252806020026020018201604052801561262c5781602001602082028038833980820191505090505b508152602001838152602001600015158152509050600560003373ffffffffffffffffffffffffffffffffffffffff1673ffffffffffffffffffffffffffffffffffffffff168152602001908152602001600020819080600181540180825580915050906001820390600052602060002090600802016000909192909190915060008201518160000190600019169055602082015181600101556040820151816002015560608201518160030160006101000a81548173ffffffffffffffffffffffffffffffffffffffff021916908373ffffffffffffffffffffffffffffffffffffffff1602179055506080820151816004019080519060200190612733929190613023565b5060a0820151816005019080519060200190612750929190613023565b5060c082015181600601908051906020019061276d9291906130ad565b5060e08201518160070160006101000a81548160ff0219169083151502179055505050503373ffffffffffffffffffffffffffffffffffffffff167f1b5c23e527552cb1e081ab428f5795d07b80a810e1e72bd2ac1ce63624e8e93c61281f6001600560003373ffffffffffffffffffffffffffffffffffffffff1673ffffffffffffffffffffffffffffffffffffffff1681526020019081526020016000208054905061293190919063ffffffff16565b866040518083815260200182600019166000191681526020019250505060405180910390a250505050565b600080600090505b82518110156128bb57828181518110151561286957fe5b9060200190602002015173ffffffffffffffffffffffffffffffffffffffff168473ffffffffffffffffffffffffffffffffffffffff1614156128ae578091506128c0565b8080600101915050612852565b825191505b5092915050565b600081830190508281101515156128da57fe5b80905092915050565b6000808314156128f65760009050612915565b818302905081838281151561290757fe5b0414151561291157fe5b8090505b92915050565b6000818381151561292857fe5b04905092915050565b600082821115151561293f57fe5b818303905092915050565b600080600080600086511180156129615750600085115b15612a345760009250600091506129836001875161293190919063ffffffff16565b90505b82811115612a11576129c760026129b960016129ab85886128c790919063ffffffff16565b6128c790919063ffffffff16565b61291b90919063ffffffff16565b91508486838151811015156129d857fe5b90602001906020020151600001511115156129f557819250612a0c565b612a0960018361293190919063ffffffff16565b90505b612986565b8583815181101515612a1f57fe5b90602001906020020151602001519350612a39565b600093505b50505092915050565b600080612a4d613100565b6000612a57613100565b600080805490501115612ab657612aaf866000612a83600160008054905061293190919063ffffffff16565b815481101515612a8f57fe5b9060005260206000209060020201600101546128c790919063ffffffff16565b9350612b15565b600060408051908101604052806000815260200160008152509080600181540180825580915050906001820390600052602060002090600202016000909192909190915060008201518160000155602082015181600101555050508593505b436000612b31600160008054905061293190919063ffffffff16565b815481101515612b3d57fe5b9060005260206000209060020201600001541415612b9757836000612b71600160008054905061293190919063ffffffff16565b815481101515612b7d57fe5b906000526020600020906002020160010181905550612bf4565b60408051908101604052804381526020018581525092506000839080600181540180825580915050906001820390600052602060002090600202016000909192909190915060008201518160000155602082015181600101555050505b6000600160008973ffffffffffffffffffffffffffffffffffffffff1673ffffffffffffffffffffffffffffffffffffffff168152602001908152602001600020805490501115612d0a57612d0386600160008a73ffffffffffffffffffffffffffffffffffffffff1673ffffffffffffffffffffffffffffffffffffffff168152602001908152602001600020612cd760018060008d73ffffffffffffffffffffffffffffffffffffffff1673ffffffffffffffffffffffffffffffffffffffff1681526020019081526020016000208054905061293190919063ffffffff16565b815481101515612ce357fe5b9060005260206000209060020201600101546128c790919063ffffffff16565b9150612da6565b600160008873ffffffffffffffffffffffffffffffffffffffff1673ffffffffffffffffffffffffffffffffffffffff16815260200190815260200160002060408051908101604052806000815260200160008152509080600181540180825580915050906001820390600052602060002090600202016000909192909190915060008201518160000155602082015181600101555050508591505b43600160008973ffffffffffffffffffffffffffffffffffffffff1673ffffffffffffffffffffffffffffffffffffffff168152602001908152602001600020612e3b60018060008c73ffffffffffffffffffffffffffffffffffffffff1673ffffffffffffffffffffffffffffffffffffffff1681526020019081526020016000208054905061293190919063ffffffff16565b815481101515612e4757fe5b9060005260206000209060020201600001541415612f1a5781600160008973ffffffffffffffffffffffffffffffffffffffff1673ffffffffffffffffffffffffffffffffffffffff168152602001908152602001600020612ef460018060008c73ffffffffffffffffffffffffffffffffffffffff1673ffffffffffffffffffffffffffffffffffffffff1681526020019081526020016000208054905061293190919063ffffffff16565b815481101515612f0057fe5b906000526020600020906002020160010181905550612fb4565b6040805190810160405280438152602001838152509050600160008873ffffffffffffffffffffffffffffffffffffffff1673ffffffffffffffffffffffffffffffffffffffff168152602001908152602001600020819080600181540180825580915050906001820390600052602060002090600202016000909192909190915060008201518160000155602082015181600101555050505b600194505050505092915050565b61010060405190810160405280600080191681526020016000815260200160008152602001600073ffffffffffffffffffffffffffffffffffffffff1681526020016060815260200160608152602001606081526020016000151581525090565b82805482825590600052602060002090810192821561309c579160200282015b8281111561309b5782518260006101000a81548173ffffffffffffffffffffffffffffffffffffffff021916908373ffffffffffffffffffffffffffffffffffffffff16021790555091602001919060010190613043565b5b5090506130a9919061311a565b5090565b8280548282559060005260206000209081019282156130ef579160200282015b828111156130ee5782518290600019169055916020019190600101906130cd565b5b5090506130fc919061315d565b5090565b604080519081016040528060008152602001600081525090565b61315a91905b8082111561315657600081816101000a81549073ffffffffffffffffffffffffffffffffffffffff021916905550600101613120565b5090565b90565b61317f91905b8082111561317b576000816000905550600101613163565b5090565b905600a165627a7a723058202821877afd2dc8f370e94a7a23ad845f7db794895e9134d50b2c2cc6c30479580029",
  "source": "pragma solidity ^0.4.24;\n\nimport \"./../helpers/SafeMath.sol\";\nimport \"./../STAKE/STAKE.sol\";\n\ncontract Database is STAKE {\n  using SafeMath for uint256;\n\n  struct MedicalReport {\n    bytes32 hashRoot;\n    uint256 timestamp;\n    uint256 weight;\n    address owner;\n    address[] reviewers;\n    address[] reviewed;\n    bytes32[] references;\n    bool isClosed;\n  }\n\n  mapping (address => MedicalReport[]) achievements;\n  event SubmitReport(address indexed reporter, uint256 index, bytes32 hashRoot);\n  event ScoreReport(address indexed reviewer, address reporter, uint256 index, uint256 completeness, uint256 importance);\n  event CloseReport(address indexed reporter, uint256 index, uint256 reward);\n\n  /**\n   * Constructor\n   */\n  constructor(address _boostrapNode, uint256 _boostrapValue) public {\n    mint(_boostrapNode, _boostrapValue);\n  }\n\n  /**\n   * Modifiers\n   */\n  modifier onlyOwner(MedicalReport memory _mr) {\n    require(_mr.owner == msg.sender, \"Invalid authentication\");\n    _;\n  }\n\n  modifier onlyReviewer(MedicalReport memory _mr) {\n    require(indexOf(msg.sender, _mr.reviewers) != _mr.reviewers.length, \"Invalid authentication\");\n    require(indexOf(msg.sender, _mr.reviewed) == _mr.reviewed.length, \"Invalid authentication\");\n    _;\n  }\n\n  modifier validCompleteness(uint256 _completeness) {\n    require(_completeness >= 0 && _completeness <= 60, \"Invalid completeness score\");\n    _;\n  }\n\n  modifier validImportance(uint256 _importance) {\n    require(_importance == 10 || _importance == 20 || _importance == 30 || _importance == 40, \"Invalid importance score\");\n    _;\n  }\n\n  modifier isOpened(MedicalReport memory _mr) {\n    require(!_mr.isClosed);\n    _;\n  }\n\n  modifier isClosed(MedicalReport memory _mr) {\n    require(_mr.isClosed);\n    _;\n  }\n\n  /**\n   * Public functions\n   */\n  function submitReport(bytes32 _hashRoot, address[] memory _reviewers, bytes32[] memory _references) public {\n    MedicalReport memory _mr = MedicalReport(_hashRoot, block.timestamp, 0, msg.sender, _reviewers, new address[](0), _references, false);\n    achievements[msg.sender].push(_mr);\n    emit SubmitReport(msg.sender, achievements[msg.sender].length.sub(1), _hashRoot);\n  }\n\n  function scoreReport(\n    address _reporter,\n    uint256 _index,\n    uint256 _completeness,\n    uint256 _importance\n  )\n    public\n    validCompleteness(_completeness)\n    validImportance(_importance)\n    onlyReviewer(achievements[_reporter][_index])\n    isOpened(achievements[_reporter][_index])\n  {\n    achievements[_reporter][_index].reviewed.push(msg.sender);\n    uint256 weight = achievements[_reporter][_index].weight;\n    uint256 harmony = achievements[_reporter][_index].reviewed.length;\n    uint256 point = stakeOf(msg.sender).mul(_completeness.add(_importance)).div(100);\n    if(harmony > 1) {\n      achievements[_reporter][_index].weight = weight.mul(harmony.sub(1)).div(harmony).mul(point);\n    } else {\n      achievements[_reporter][_index].weight = point;\n    }\n    emit ScoreReport(msg.sender, _reporter, _index, _completeness, _importance);\n  }\n\n  function closeReport(uint256 _index)\n    public\n    onlyOwner(achievements[msg.sender][_index])\n    isOpened(achievements[msg.sender][_index])\n  {\n    achievements[msg.sender][_index].isClosed = true;\n    uint256 reward = achievements[msg.sender][_index].weight.mul(10).div(100);\n    uint256 incentive = reward.div(4).div(achievements[msg.sender][_index].reviewed.length);\n    mint(msg.sender, reward);\n    for(uint256 i = 0; i < achievements[msg.sender][_index].reviewed.length; i++) {\n      mint(achievements[msg.sender][_index].reviewed[i], incentive);\n    }\n    emit CloseReport(msg.sender, _index, reward);\n  }\n\n  function getBasicReportInfo(address _reporter, uint256 _index) public view returns (bytes32, uint256, uint256, address, bool) {\n    MedicalReport memory _mr = achievements[_reporter][_index];\n    return (_mr.hashRoot, _mr.timestamp, _mr.weight, _mr.owner, _mr.isClosed);\n  }\n\n  function getReportReviewer(address _reporter, uint256 _index, uint256 _order) public view returns (address, bool) {\n    MedicalReport memory _mr = achievements[_reporter][_index];\n    bool isReviewed = indexOf(_mr.reviewers[_order], _mr.reviewed) != _mr.reviewed.length;\n    return (_mr.reviewers[_order], isReviewed);\n  }\n\n  function getReportRefer(address _reporter, uint256 _index, uint256 _order) public view returns (bytes32) {\n    MedicalReport memory _mr = achievements[_reporter][_index];\n    return _mr.references[_order];\n  }\n\n  /**\n   * Private functions \n   */\n  function indexOf(address item, address[] memory list) private pure returns (uint256) {\n    for (uint256 i = 0; i < list.length; i++) {\n      if(item == list[i]) return i;\n    }\n    return list.length;\n  }\n}",
  "sourcePath": "/Users/admin/Desktop/SoC/contracts/DB/Database.sol",
  "compiler": {
    "name": "solc",
    "version": "0.4.24+commit.e67f0147.Emscripten.clang"
  },
  "schemaVersion": "2.0.1",
  "updatedAt": "2018-12-01T16:37:20.958Z"
}