{
  "contractName": "STAKE",
  "abi": [
    {
      "constant": true,
      "inputs": [],
      "name": "totalSupply",
      "outputs": [
        {
          "name": "",
          "type": "uint256"
        }
      ],
      "payable": false,
      "stateMutability": "view",
      "type": "function"
    },
    {
      "constant": true,
      "inputs": [
        {
          "name": "_owner",
          "type": "address"
        }
      ],
      "name": "stakeOf",
      "outputs": [
        {
          "name": "",
          "type": "uint256"
        }
      ],
      "payable": false,
      "stateMutability": "view",
      "type": "function"
    },
    {
      "constant": true,
      "inputs": [
        {
          "name": "_owner",
          "type": "address"
        },
        {
          "name": "_blockNumber",
          "type": "uint256"
        }
      ],
      "name": "stakeOfAt",
      "outputs": [
        {
          "name": "",
          "type": "uint256"
        }
      ],
      "payable": false,
      "stateMutability": "view",
      "type": "function"
    },
    {
      "constant": true,
      "inputs": [
        {
          "name": "_blockNumber",
          "type": "uint256"
        }
      ],
      "name": "totalSupplyAt",
      "outputs": [
        {
          "name": "",
          "type": "uint256"
        }
      ],
      "payable": false,
      "stateMutability": "view",
      "type": "function"
    },
    {
      "inputs": [],
      "payable": false,
      "stateMutability": "nonpayable",
      "type": "constructor"
    },
    {
      "constant": true,
      "inputs": [],
      "name": "name",
      "outputs": [
        {
          "name": "",
          "type": "string"
        }
      ],
      "payable": false,
      "stateMutability": "view",
      "type": "function"
    },
    {
      "constant": true,
      "inputs": [],
      "name": "symbol",
      "outputs": [
        {
          "name": "",
          "type": "string"
        }
      ],
      "payable": false,
      "stateMutability": "view",
      "type": "function"
    },
    {
      "constant": true,
      "inputs": [],
      "name": "decimals",
      "outputs": [
        {
          "name": "",
          "type": "uint256"
        }
      ],
      "payable": false,
      "stateMutability": "view",
      "type": "function"
    }
  ],
  "bytecode": "0x608060405234801561001057600080fd5b506040805190810160405280600581526020017f5354414b450000000000000000000000000000000000000000000000000000008152506002908051906020019061005c9291906100b6565b506040805190810160405280600581526020017f5354414b45000000000000000000000000000000000000000000000000000000815250600390805190602001906100a89291906100b6565b50601260048190555061015b565b828054600181600116156101000203166002900490600052602060002090601f016020900481019282601f106100f757805160ff1916838001178555610125565b82800160010185558215610125579182015b82811115610124578251825591602001919060010190610109565b5b5090506101329190610136565b5090565b61015891905b8082111561015457600081600090555060010161013c565b5090565b90565b6108258061016a6000396000f300608060405260043610610083576000357c0100000000000000000000000000000000000000000000000000000000900463ffffffff16806306fdde031461008857806318160ddd14610118578063313ce56714610143578063426233601461016e5780634c75ab9c146101c557806395d89b4114610226578063981b24d0146102b6575b600080fd5b34801561009457600080fd5b5061009d6102f7565b6040518080602001828103825283818151815260200191508051906020019080838360005b838110156100dd5780820151818401526020810190506100c2565b50505050905090810190601f16801561010a5780820380516001836020036101000a031916815260200191505b509250505060405180910390f35b34801561012457600080fd5b5061012d610399565b6040518082815260200191505060405180910390f35b34801561014f57600080fd5b50610158610415565b6040518082815260200191505060405180910390f35b34801561017a57600080fd5b506101af600480360381019080803573ffffffffffffffffffffffffffffffffffffffff16906020019092919050505061041f565b6040518082815260200191505060405180910390f35b3480156101d157600080fd5b50610210600480360381019080803573ffffffffffffffffffffffffffffffffffffffff169060200190929190803590602001909291905050506104da565b6040518082815260200191505060405180910390f35b34801561023257600080fd5b5061023b610596565b6040518080602001828103825283818151815260200191508051906020019080838360005b8381101561027b578082015181840152602081019050610260565b50505050905090810190601f1680156102a85780820380516001836020036101000a031916815260200191505b509250505060405180910390f35b3480156102c257600080fd5b506102e160048036038101908080359060200190929190505050610638565b6040518082815260200191505060405180910390f35b606060028054600181600116156101000203166002900480601f01602080910402602001604051908101604052809291908181526020018280546001816001161561010002031660029004801561038f5780601f106103645761010080835404028352916020019161038f565b820191906000526020600020905b81548152906001019060200180831161037257829003601f168201915b5050505050905090565b60006104106000805480602002602001604051908101604052809291908181526020016000905b82821015610406578382906000526020600020906002020160408051908101604052908160008201548152602001600182015481525050815260200190600101906103c0565b50505050436106b6565b905090565b6000600454905090565b60006104d3600160008473ffffffffffffffffffffffffffffffffffffffff1673ffffffffffffffffffffffffffffffffffffffff168152602001908152602001600020805480602002602001604051908101604052809291908181526020016000905b828210156104c957838290600052602060002090600202016040805190810160405290816000820154815260200160018201548152505081526020019060010190610483565b50505050436106b6565b9050919050565b600061058e600160008573ffffffffffffffffffffffffffffffffffffffff1673ffffffffffffffffffffffffffffffffffffffff168152602001908152602001600020805480602002602001604051908101604052809291908181526020016000905b828210156105845783829060005260206000209060020201604080519081016040529081600082015481526020016001820154815250508152602001906001019061053e565b50505050836106b6565b905092915050565b606060038054600181600116156101000203166002900480601f01602080910402602001604051908101604052809291908181526020018280546001816001161561010002031660029004801561062e5780601f106106035761010080835404028352916020019161062e565b820191906000526020600020905b81548152906001019060200180831161061157829003601f168201915b5050505050905090565b60006106af6000805480602002602001604051908101604052809291908181526020016000905b828210156106a55783829060005260206000209060020201604080519081016040529081600082015481526020016001820154815250508152602001906001019061065f565b50505050836106b6565b9050919050565b600080600080600086511180156106cd5750600085115b156107a05760009250600091506106ef600187516107ae90919063ffffffff16565b90505b8281111561077d576107336002610725600161071785886107c790919063ffffffff16565b6107c790919063ffffffff16565b6107e390919063ffffffff16565b915084868381518110151561074457fe5b906020019060200201516000015111151561076157819250610778565b6107756001836107ae90919063ffffffff16565b90505b6106f2565b858381518110151561078b57fe5b906020019060200201516020015193506107a5565b600093505b50505092915050565b60008282111515156107bc57fe5b818303905092915050565b600081830190508281101515156107da57fe5b80905092915050565b600081838115156107f057fe5b049050929150505600a165627a7a723058205e2a5accbd3d952b2cc6573ec99c317bc7c6f411f20784daa1eff2ad10c852f70029",
  "source": "pragma solidity ^0.4.24;\n\nimport \"./StandardSTAKE.sol\";\n\ncontract STAKE is StandardSTAKE {\n  string name_;\n  string symbol_;\n  uint256 decimals_;\n\n  constructor () public {\n    name_ = \"STAKE\";\n    symbol_ = \"STAKE\";\n    decimals_ = 18;\n  }\n\n  function name() public view returns (string) {\n    return name_;\n  }\n\n  function symbol() public view returns (string) {\n    return symbol_;\n  }\n\n  function decimals() public view returns (uint256) {\n    return decimals_;\n  }\n\n}",
  "sourcePath": "/Users/admin/Desktop/SoC/contracts/STAKE/STAKE.sol",
  "compiler": {
    "name": "solc",
    "version": "0.4.24+commit.e67f0147.Emscripten.clang"
  },
  "schemaVersion": "2.0.1",
  "updatedAt": "2018-12-01T16:37:20.932Z"
}