{
  "contractName": "StandardSTAKE",
  "abi": [
    {
      "constant": true,
      "inputs": [],
      "name": "totalSupply",
      "outputs": [
        {
          "name": "",
          "type": "uint256"
        }
      ],
      "payable": false,
      "stateMutability": "view",
      "type": "function"
    },
    {
      "constant": true,
      "inputs": [
        {
          "name": "_blockNumber",
          "type": "uint256"
        }
      ],
      "name": "totalSupplyAt",
      "outputs": [
        {
          "name": "",
          "type": "uint256"
        }
      ],
      "payable": false,
      "stateMutability": "view",
      "type": "function"
    },
    {
      "constant": true,
      "inputs": [
        {
          "name": "_owner",
          "type": "address"
        }
      ],
      "name": "stakeOf",
      "outputs": [
        {
          "name": "",
          "type": "uint256"
        }
      ],
      "payable": false,
      "stateMutability": "view",
      "type": "function"
    },
    {
      "constant": true,
      "inputs": [
        {
          "name": "_owner",
          "type": "address"
        },
        {
          "name": "_blockNumber",
          "type": "uint256"
        }
      ],
      "name": "stakeOfAt",
      "outputs": [
        {
          "name": "",
          "type": "uint256"
        }
      ],
      "payable": false,
      "stateMutability": "view",
      "type": "function"
    }
  ],
  "bytecode": "0x608060405234801561001057600080fd5b5061056b806100206000396000f300608060405260043610610062576000357c0100000000000000000000000000000000000000000000000000000000900463ffffffff16806318160ddd1461006757806342623360146100925780634c75ab9c146100e9578063981b24d01461014a575b600080fd5b34801561007357600080fd5b5061007c61018b565b6040518082815260200191505060405180910390f35b34801561009e57600080fd5b506100d3600480360381019080803573ffffffffffffffffffffffffffffffffffffffff169060200190929190505050610207565b6040518082815260200191505060405180910390f35b3480156100f557600080fd5b50610134600480360381019080803573ffffffffffffffffffffffffffffffffffffffff169060200190929190803590602001909291905050506102c2565b6040518082815260200191505060405180910390f35b34801561015657600080fd5b506101756004803603810190808035906020019092919050505061037e565b6040518082815260200191505060405180910390f35b60006102026000805480602002602001604051908101604052809291908181526020016000905b828210156101f8578382906000526020600020906002020160408051908101604052908160008201548152602001600182015481525050815260200190600101906101b2565b50505050436103fc565b905090565b60006102bb600160008473ffffffffffffffffffffffffffffffffffffffff1673ffffffffffffffffffffffffffffffffffffffff168152602001908152602001600020805480602002602001604051908101604052809291908181526020016000905b828210156102b15783829060005260206000209060020201604080519081016040529081600082015481526020016001820154815250508152602001906001019061026b565b50505050436103fc565b9050919050565b6000610376600160008573ffffffffffffffffffffffffffffffffffffffff1673ffffffffffffffffffffffffffffffffffffffff168152602001908152602001600020805480602002602001604051908101604052809291908181526020016000905b8282101561036c57838290600052602060002090600202016040805190810160405290816000820154815260200160018201548152505081526020019060010190610326565b50505050836103fc565b905092915050565b60006103f56000805480602002602001604051908101604052809291908181526020016000905b828210156103eb578382906000526020600020906002020160408051908101604052908160008201548152602001600182015481525050815260200190600101906103a5565b50505050836103fc565b9050919050565b600080600080600086511180156104135750600085115b156104e6576000925060009150610435600187516104f490919063ffffffff16565b90505b828111156104c357610479600261046b600161045d858861050d90919063ffffffff16565b61050d90919063ffffffff16565b61052990919063ffffffff16565b915084868381518110151561048a57fe5b90602001906020020151600001511115156104a7578192506104be565b6104bb6001836104f490919063ffffffff16565b90505b610438565b85838151811015156104d157fe5b906020019060200201516020015193506104eb565b600093505b50505092915050565b600082821115151561050257fe5b818303905092915050565b6000818301905082811015151561052057fe5b80905092915050565b6000818381151561053657fe5b049050929150505600a165627a7a723058203da5190af1250f638d1a5b9be8a898656d3b40d3fc9d4ee5088e449482011f150029",
  "source": "pragma solidity ^0.4.24;\n\nimport \"./../helpers/SafeMath.sol\";\n\ncontract StandardSTAKE {\n  using SafeMath for uint256;\n\n  struct Checkpoint {\n    uint256 fromBlock;\n    uint256 value;\n  }\n  Checkpoint[] totalSupplyHistory;\n  mapping (address => Checkpoint[]) balancesHistory;\n\n  function totalSupply() public view returns (uint256) {\n    return findCheckpoint(totalSupplyHistory, block.number);\n  }\n\n  function totalSupplyAt(uint256 _blockNumber) public view returns (uint256) {\n    return findCheckpoint(totalSupplyHistory, _blockNumber);\n  }\n\n  function stakeOf(address _owner) public view returns (uint256) {\n    return findCheckpoint(balancesHistory[_owner], block.number);\n  }\n\n  function stakeOfAt(address _owner, uint256 _blockNumber) public view returns (uint256) {\n    return findCheckpoint(balancesHistory[_owner], _blockNumber);\n  }\n\n  function findCheckpoint(Checkpoint[] memory _checkpoints, uint256 _blockNumber) private pure returns (uint256) {\n    if (_checkpoints.length > 0 && _blockNumber > 0) {\n      uint256 min = 0;\n      uint256 mid = 0;\n      uint256 max = _checkpoints.length.sub(1);\n      while (max > min) {\n        mid = min.add(max).add(1).div(2);\n        if (_checkpoints[mid].fromBlock <= _blockNumber) {\n          min = mid;\n        } else {\n          max = mid.sub(1);\n        }\n      }\n      return _checkpoints[min].value;\n    } else {\n      return 0;\n    }\n  }\n\n  function mint(address _owner, uint256 _value) internal returns (bool) {\n    // Update totalSupply\n    uint256 _newTotalSupplyHistory;\n    if (totalSupplyHistory.length > 0) {\n      _newTotalSupplyHistory = totalSupplyHistory[totalSupplyHistory.length.sub(1)].value.add(_value);\n    } else {\n      totalSupplyHistory.push(Checkpoint(0,0));\n      _newTotalSupplyHistory = _value;\n    }\n    if (totalSupplyHistory[totalSupplyHistory.length.sub(1)].fromBlock == block.number) {\n      totalSupplyHistory[totalSupplyHistory.length.sub(1)].value = _newTotalSupplyHistory;\n    } else {\n      Checkpoint memory _totalSupplyHistory = Checkpoint(block.number, _newTotalSupplyHistory);\n      totalSupplyHistory.push(_totalSupplyHistory);\n    }\n\n    // Update balancesHistory\n    uint256 _newBalancesHistory;\n    if (balancesHistory[_owner].length > 0) {\n      _newBalancesHistory = balancesHistory[_owner][balancesHistory[_owner].length.sub(1)].value.add(_value);\n    } else {\n      balancesHistory[_owner].push(Checkpoint(0,0));\n      _newBalancesHistory = _value;\n    }\n    if (balancesHistory[_owner][balancesHistory[_owner].length.sub(1)].fromBlock == block.number) {\n      balancesHistory[_owner][balancesHistory[_owner].length.sub(1)].value = _newBalancesHistory;\n    } else {\n      Checkpoint memory _balancesHistory = Checkpoint(block.number, _newBalancesHistory);\n      balancesHistory[_owner].push(_balancesHistory);\n    }\n\n    return true;\n  }\n\n}",
  "sourcePath": "/Users/admin/Desktop/SoC/contracts/STAKE/StandardSTAKE.sol",
  "compiler": {
    "name": "solc",
    "version": "0.4.24+commit.e67f0147.Emscripten.clang"
  },
  "schemaVersion": "2.0.1",
  "updatedAt": "2018-12-01T16:37:20.950Z"
}