{
  "contractName": "TokenDistribution",
  "abi": [
    {
      "inputs": [
        {
          "name": "_work",
          "type": "address"
        },
        {
          "name": "_stake",
          "type": "address"
        }
      ],
      "payable": false,
      "stateMutability": "nonpayable",
      "type": "constructor"
    },
    {
      "anonymous": false,
      "inputs": [
        {
          "indexed": true,
          "name": "holder",
          "type": "address"
        },
        {
          "indexed": false,
          "name": "value",
          "type": "uint256"
        },
        {
          "indexed": false,
          "name": "ok",
          "type": "bool"
        }
      ],
      "name": "Share",
      "type": "event"
    },
    {
      "constant": false,
      "inputs": [],
      "name": "share",
      "outputs": [
        {
          "name": "",
          "type": "bool"
        }
      ],
      "payable": false,
      "stateMutability": "nonpayable",
      "type": "function"
    }
  ],
  "bytecode": "0x6080604052620278d060025534801561001757600080fd5b506040516040806107aa8339810180604052810190808051906020019092919080519060200190929190505050816000806101000a81548173ffffffffffffffffffffffffffffffffffffffff021916908373ffffffffffffffffffffffffffffffffffffffff16021790555080600160006101000a81548173ffffffffffffffffffffffffffffffffffffffff021916908373ffffffffffffffffffffffffffffffffffffffff16021790555050506106d4806100d66000396000f300608060405260043610610041576000357c0100000000000000000000000000000000000000000000000000000000900463ffffffff168063a8d5fd6514610046575b600080fd5b34801561005257600080fd5b5061005b610075565b604051808215151515815260200191505060405180910390f35b600080600080600061009d6002544381151561008d57fe5b064361064190919063ffffffff16565b600360003373ffffffffffffffffffffffffffffffffffffffff1673ffffffffffffffffffffffffffffffffffffffff1681526020019081526020016000205414151515610153576040517f08c379a00000000000000000000000000000000000000000000000000000000081526004018080602001828103825260168152602001807f496e76616c69642061757468656e7469636174696f6e0000000000000000000081525060200191505060405180910390fd5b6101736002544381151561016357fe5b064361064190919063ffffffff16565b9350610365600160009054906101000a900473ffffffffffffffffffffffffffffffffffffffff1673ffffffffffffffffffffffffffffffffffffffff1663981b24d0866040518263ffffffff167c010000000000000000000000000000000000000000000000000000000002815260040180828152602001915050602060405180830381600087803b15801561020957600080fd5b505af115801561021d573d6000803e3d6000fd5b505050506040513d602081101561023357600080fd5b81019080805190602001909291905050506103576064600160009054906101000a900473ffffffffffffffffffffffffffffffffffffffff1673ffffffffffffffffffffffffffffffffffffffff16634c75ab9c338a6040518363ffffffff167c0100000000000000000000000000000000000000000000000000000000028152600401808373ffffffffffffffffffffffffffffffffffffffff1673ffffffffffffffffffffffffffffffffffffffff16815260200182815260200192505050602060405180830381600087803b15801561030e57600080fd5b505af1158015610322573d6000803e3d6000fd5b505050506040513d602081101561033857600080fd5b810190808051906020019092919050505061065a90919063ffffffff16565b61069290919063ffffffff16565b92506001831015610379576000945061063a565b83600360003373ffffffffffffffffffffffffffffffffffffffff1673ffffffffffffffffffffffffffffffffffffffff168152602001908152602001600020819055506104d960646104cb6000809054906101000a900473ffffffffffffffffffffffffffffffffffffffff1673ffffffffffffffffffffffffffffffffffffffff166370a08231306040518263ffffffff167c0100000000000000000000000000000000000000000000000000000000028152600401808273ffffffffffffffffffffffffffffffffffffffff1673ffffffffffffffffffffffffffffffffffffffff168152602001915050602060405180830381600087803b15801561048157600080fd5b505af1158015610495573d6000803e3d6000fd5b505050506040513d60208110156104ab57600080fd5b81019080805190602001909291905050508661065a90919063ffffffff16565b61069290919063ffffffff16565b91506000809054906101000a900473ffffffffffffffffffffffffffffffffffffffff1673ffffffffffffffffffffffffffffffffffffffff1663a9059cbb33846040518363ffffffff167c0100000000000000000000000000000000000000000000000000000000028152600401808373ffffffffffffffffffffffffffffffffffffffff1673ffffffffffffffffffffffffffffffffffffffff16815260200182815260200192505050602060405180830381600087803b15801561059f57600080fd5b505af11580156105b3573d6000803e3d6000fd5b505050506040513d60208110156105c957600080fd5b810190808051906020019092919050505090503373ffffffffffffffffffffffffffffffffffffffff167f0fd331eedebb10fb97ea6d80342719205a7c02481f8526714150c6f519fee15f838360405180838152602001821515151581526020019250505060405180910390a28094505b5050505090565b600082821115151561064f57fe5b818303905092915050565b60008083141561066d576000905061068c565b818302905081838281151561067e57fe5b0414151561068857fe5b8090505b92915050565b6000818381151561069f57fe5b049050929150505600a165627a7a723058208a41d922838b3392ff8976167c0616ce52f23391ada24b63fc55f07ba57314b90029",
  "source": "pragma solidity ^0.4.24;\n\nimport \"./../helpers/SafeMath.sol\";\nimport \"./../WORK/WORKInterface.sol\";\nimport \"./../STAKE/STAKEInterface.sol\";\n\ncontract TokenDistribution {\n  using SafeMath for uint256;\n\n  WORKInterface workToken;\n  STAKEInterface stakeToken;\n  uint256 duration = 162000;\n\n  mapping (address => uint256) records;\n  event Share(address indexed holder, uint256 value, bool ok);\n\n  /**\n   * Constructor\n   */\n  constructor(address _work, address _stake) public {\n    workToken = WORKInterface(_work);\n    stakeToken = STAKEInterface(_stake);\n  }\n\n  /**\n   * Modifiers\n   */\n  modifier validHolder() {\n    require(records[msg.sender] != block.number.sub(block.number % duration), \"Invalid authentication\");\n    _;\n  }\n  \n  function share() public validHolder returns (bool) {\n    uint256 milestone = block.number.sub(block.number % duration);\n    uint256 percentage = stakeToken.stakeOfAt(msg.sender, milestone).mul(100).div(stakeToken.totalSupplyAt(milestone));\n    if(percentage < 1) return false;\n    records[msg.sender] = milestone;\n    uint256 value = percentage.mul(workToken.balanceOf(this)).div(100);\n    bool ok = workToken.transfer(msg.sender, value);\n    emit Share(msg.sender, value, ok);\n    return ok;\n  }\n}",
  "sourcePath": "/Users/admin/Desktop/SoC/contracts/Shares/TokenDistribution.sol",
  "compiler": {
    "name": "solc",
    "version": "0.4.24+commit.e67f0147.Emscripten.clang"
  },
  "schemaVersion": "2.0.1",
  "updatedAt": "2018-12-01T16:37:20.940Z"
}